:10000000020A3EEF240E601B14600E24F4701E9052
:10001000001EE4F0A37417F02290001EE4F0A37415
:1000200030F02290001EE4F0A37420F02290001E15
:0A003000E4F0A37417F022D2952229
:10003B0002052890000E1208FE00000000E490005C
:10004B0042F0A3F0E4900040F0A3F0900041E004F4
:10005B00F07006900040E004F0900040E0B401EB3B
:10006B00A3E0B4F4E6900043E004F0700690004285
:10007B00E004F0900042E07004A3E0646470C5A259
:10008B00AF9200C2AF75C7AA75C755E4F591A20030
:10009B0092AF53B1BF53B2BFA2AF9200C2AF75C7FD
:1000AB00AA75C755F591A20092AF53B17F53B27F9A
:1000BB0053E9FB43E98043EA4053EBBF43E98043F9
:1000CB00EA8053EB7F439B02A2AF9200C2AF75C78E
:1000DB00AA75C755F591A20092AF53B3EF43B41075
:1000EB00A2AF9200C2AF75C7AA75C755759101A291
:1000FB000092AF43C602A2AF9200C2AF75C7AA75FA
:10010B00C755F591A20092AF53DF3F43D602D2DE23
:10011B00D2DF53DFF8F5D175D9FFF5D3F5DBD2DE9E
:10012B0090003AF0A3F0900048F0A3F074FF900019
:10013B0038F0A3F01206A41209C8E4900044F0A30F
:10014B00F0120A70900044E0FCA3E02420F58274C6
:10015B00003CF583EFF0900045E004F07006900052
:10016B0044E004F0C3900045E09410900044E09408
:10017B000040CE900020E0FF900014F0900021E0B2
:10018B00900017F0EF24027022900017E0FF64EF4D
:10019B00700302024E900002E4F0A304F0900006FC
:1001AB00E4F0A304F012000302024EE4900042F0CC
:1001BB00A3F075DB80D2DEE4900040F0A3F090005A
:1001CB0041E004F07006900040E004F0900040E045
:1001DB00B401EBA3E0B42CE6E4F5DBD2DE900040F7
:1001EB00F0A3F0900041E004F07006900040E004B2
:1001FB00F0900040E0B401EBA3E0B42CE690004398
:10020B00E004F07006900042E004F0900042E070D1
:10021B0004A3E06464709BA2AF9200C2AF75C7AA3F
:10022B0075C755759101A20092AF53C6FDA2AF924F
:10023B0000C2AF75C7AA75C755E4F591A20092AF7E
:10024B0043870290001CE07002A3E07045900028E9
:10025B00E0FF5401FD900002E4F0A3EDF0EF540237
:10026B00FF900006E4F0A3EFF0900028E05404FFA9
:10027B00900018E4F0A3EFF090002AE0FF9000123A
:10028B00E4F0A3EFF090002BE0FF900015E4F0A357
:10029B00EFF0900023E0FFE4FCFDFE78101208DF86
:1002AB00C004C005C006C007900022E0FFE4FCFDBF
:1002BB00FE78181208DFD003D002D001D000EF2B4C
:1002CB00FFEE3AFEED39FDEC38FCC004C005C0066C
:1002DB00C007900024E0FFE4FCFDFE78081208DF65
:1002EB00D003D002D001D000EB2FFBEA3EFAE93D60
:1002FB00F9E83CF8A3E0FFE4FCFDFEEB2FFFEE3A40
:10030B00FEED39FDEC38FC90003C1208F290000633
:10031B00E07002A3E06008900048E4F0A304F090C2
:10032B000029E0FF900008E4F0A3EFF0A31208FE11
:10033B0000000000120A0375DB80D2DEA2AF920030
:10034B00C2AF75C7AA75C755759101A20092AF537D
:10035B00C6FDA2AF9200C2AF75C7AA75C755E4F52B
:10036B0091A20092AFD2AF900048E07002A3E07070
:10037B000D90001CE07002A3E07003020521A2AFF8
:10038B009200C2AF75C7AA75C755759101A20092AD
:10039B00AF43C602A2AF9200C2AF75C7AA75C755CD
:1003AB00E4F591A20092AF90001CE07002A3E07004
:1003BB007290001AE07004A3E064017013C2AF7472
:1003CB00FF900038F0A3F0E490001AF0A3F0D2AF46
:1003DB0090003AE07004A3E064017047C2AF900054
:1003EB0009E024FFFF900008E034FFFE900038E0A6
:1003FB006E7003A3E06F6010900039E004F070069C
:10040B00900038E004F08007E4900038F0A3F090FF
:10041B000038E0FEA3E0FF1207B1E490003AF0A32E
:10042B00F0D2AF90000EE0FCA3E0FDA3E0FEA3E052
:10043B00FF90000AE0F8A3E0F9A3E0FAA3E02FFF96
:10044B00EA3EFEE93DFDE83CFCE42FFFEE3440FEC6
:10045B00E43DFDE43CFC12092F8FDBD2DEE490007F
:10046B0040F0A3F090001EE0FEA3E0FFC39000411C
:10047B00E09F900040E09E500EA3E004F0700690C9
:10048B000040E004F080DD90000AE0FCA3E0FDA357
:10049B00E0FEA3E02401FFE43EFEE43DFDE43CFC72
:1004AB0090000A1208F290003CE0FCA3E0FDA3E0F0
:1004BB00FEA3E0FF90000AE0F8A3E0F9A3E0FAA3A3
:1004CB00E0FBC31208BB600302037290000A120820
:1004DB00FE00000000900006E07002A3E060030243
:1004EB000372900048F0A3F0A2AF9200C2AF75C7A1
:1004FB00AA75C755759101A20092AF53C6FDA2AF65
:10050B009200C2AF75C7AA75C755F591A20092AFFD
:10051B0043870102037243870102037222C0E0C0CA
:10052B0083C082C0D075D000C006C007C091AFECAD
:10053B00EF64407070900012E0FEA3E0FFEE70627B
:10054B00EF14705E90003AE4F0A304F0900048E4DE
:10055B00F0A304F0900018E07002A3E06044900058
:10056B0042E4F0A3F0900040E4F0A3F0900041E0EF
:10057B0004F07006900040E004F0900040E070043E
:10058B00A3E0646470E6900043E004F07006900012
:10059B0042E004F0900042E0B403CAA3E0B484C587
:1005AB00800075EC00AFECEF648060030206959061
:1005BB000015E0FEA3E0FFEE6003020692EF24FCC1
:1005CB0060682403600302069290003AE4F0A304EF
:1005DB00F0900048E4F0A304F0900018E07002A340
:1005EB00E07003020692900042E4F0A3F09000400A
:1005FB00E4F0A3F0900041E004F07006900040E0BE
:10060B0004F0900040E07004A3E0646470E6900096
:10061B0043E004F07006900042E004F0900042E0EA
:10062B00B403CAA3E0B484C5805D90001AE4F0A3C0
:10063B0004F0900048E4F0A3F0900018E07002A3DF
:10064B00E06044900042E4F0A3F0900040E4F0A39B
:10065B00F0900041E004F07006900040E004F09050
:10066B000040E07004A3E0646470E6900043E00493
:10067B00F07006900042E004F0900042E0B403CA30
:10068B00A3E0B484C5800075EC00D091D007D006F0
:10069B00D0D0D082D083D0E032A2AF9200C2AF755F
:1006AB00C7AA75C755E4F591A20092AF53B3DF53B8
:1006BB00B4DFA2AF9200C2AF75C7AA75C755F5914B
:1006CB00A20092AF53B3FE53B4FEA2AF9200C2AFDF
:1006DB0075C7AA75C755F591A20092AF53B1FE53DA
:1006EB00B2FEA2AF9200C2AF75C7AA75C755F591FE
:1006FB00A20092AF53B1FD53B2FDA2AF9200C2AFB5
:10070B0075C7AA75C755F591A20092AF43F302A224
:10071B00AF9200C2AF75C7AA75C755F591A20092EB
:10072B00AF53F3FE43F408A2AF9200C2AF75C7AA52
:10073B0075C755F591A20092AF53F37FA2AF92000C
:10074B00C2AF75C7AA75C755F591A20092AF43F317
:10075B0010A2AF9200C2AF75C7AA75C755F591A28B
:10076B000092AF53F3DFA2AF9200C2AF75C7AA7569
:10077B00C755F591A20092AF53F3F7A2AF9200C207
:10078B00AF75C7AA75C755F591A20092AF53F3FB8E
:10079B00A2AF9200C2AF75C7AA75C755F591A2005B
:1007AB0092AF43F34022EF7803C333CE33CED8F965
:1007BB002410FFE43EFE3395E0FDFC12097DE4902E
:1007CB000044F0A3F0120A70900044E0FCA3E02474
:1007DB0030F58274003CF583EFF0900045E004F0B7
:1007EB007006900044E004F0C3900045E09408903C
:1007FB000044E0940040CE900031E0FFE4FCFDFEAD
:10080B0078081208DFC004C005C006C0079000308E
:10081B00E0FFE4FCFDFE78101208DFD003D002D01D
:10082B0001D000EF2BFBEE3AFAED39F9EC38F890EA
:10083B000032E0FFE4FCFDFEEB2FFFEE3AFEED395C
:10084B00FDEC38FC90000E1208F2900034E0FFE44F
:10085B00FCFDFE78081208DFC004C005C006C00707
:10086B00900033E0FFE4FCFDFE78101208DFD003AC
:10087B00D002D001D000EF2BFBEE3AFAED39F9ECB8
:10088B0038F8900035E0FFE4FCFDFEEB2FFFEE3A6D
:10089B00FEED39FDEC38FC90003C1208F29000366E
:1008AB00E0FF12000390000A1208FE000000002275
:1008BB00EB9FF5F0EA9E42F0E99D42F0E89C45F093
:1008CB0022E8600FECC313FCED13FDEE13FEEF13E8
:1008DB00FFD8F122E8600FEFC333FFEE33FEED33A9
:1008EB00FDEC33FCD8F122ECF0A3EDF0A3EEF0A37A
:1008FB00EFF022A8828583F0D083D08212091512E3
:10090B000915120915120915E473E493A3C583C5E0
:10091B00F0C583C8C582C8F0A3C583C5F0C583C81D
:10092B00C582C82290004A1208F2120037C2957F86
:10093B0003120A6590004AE0FCA3E0FDA3E0FEA3CE
:10094B00E0FF78101208CC120A6590004AE0FCA375
:10095B00E0FDA3E0FEA3E0FF78081208CC120A65C5
:10096B0090004AE0A3E0A3E0A3E0FF120A65120A9D
:10097B00702290004A1208F2120037C2957F0312C0
:10098B000A6590004AE0FCA3E0FDA3E0FEA3E0FFB4
:10099B0078101208CC120A6590004AE0FCA3E0FD27
:1009AB00A3E0FEA3E0FF78081208CC120A659000C2
:1009BB004AE0A3E0A3E0A3E0FF120A65221200378E
:1009CB00E4900040F0A3F0900041E004F07006903A
:1009DB000040E004F0900040E07004A3E064187065
:1009EB00E6C2957F03120A65E4FF120A65E4FF1263
:1009FB000A65E4FF120A6522120037E4900040F00A
:100A0B00A3F0900041E004F07006900040E004F089
:100A1B00900040E07004A3E0641870E6C2957F0379
:100A2B00120A65E4FF120A657F3F120A65E4FF12A2
:100A3B000A6522787FE4F6D8FD9000007FFF7E03E5
:100A4B00E4F0A3DFFCDEFA75812002003E8FF5E5B2
:100A5B00F430E7FBAFF553F47F228FF5E5F430E785
:0B0A6B00FB53F47F22E4FF120A582224
:00000001FF
